:020000040800F2
:10000000A05500209D010008B957000825450008AB
:10001000B557000871120008416100080000000097
:10002000000000000000000000000000B15C0008BB
:100030008D17000800000000215A0008DD5C000850
:10004000B7010008B7010008B7010008B7010008B0
:10005000B7010008B7010008B7010008B7010008A0
:10006000B7010008B7010008B7010008B701000890
:10007000B701000835150008B70100084115000850
:10008000B7010008B7010008B7010008B701000870
:100090007512000881120008B7010008B7010008B6
:1000A000B7010008B7010008B7010008B701000850
:1000B000B7010008C95D0008B7010008B7010008D2
:1000C000B7010008B7010008B7010008B701000830
:1000D000B701000829610008B7010008B70100084E
:1000E000B7010008B7010008B7010008B701000810
:1000F000B7010008B7010008B7010008B701000800
:10010000B7010008B7010008B7010008B7010008EF
:10011000215F0008B7010008B7010008B701000817
:10012000B70100084D15000859150008B70100086F
:10013000B7010008B7010008B7010008B7010008BF
:100140008D12000899120008B7010008B7010008D5
:10015000B7010008B70100086515000835610008FF
:10016000B7010008B7010008B7010008B70100088F
:10017000B7010008B7010008B7010008000000003F
:10018000B7010008B7010008DFF80CD000F056FBFB
:1001900000480047357B0008A055002006488047EE
:1001A00006480047FEE7FEE7FEE7FEE7FEE7FEE75C
:1001B000FEE7FEE7FEE7FEE7B55D000889010008FF
:1001C0002DE9F05F0546002092469B46884606468C
:1001D000814640241BE0284641464746224600F01F
:1001E00025FA53465A46C01A914110D31146184673
:1001F000224600F00CFA2D1A67EB01084F46224602
:100200000120002100F003FA17EB00094E41201EE7
:10021000A4F10104DFDC484631462A464346BDE8E6
:10022000F09F40EA01039B0703D009E008C9121FB1
:1002300008C0042AFAD203E011F8013B00F8013BA0
:10024000521EF9D27047D2B201E000F8012B491ECC
:10025000FBD270470022F6E710B513460A46044663
:100260001946FFF7F0FF204610BD10B5484304467D
:1002700008F09CFE002805D00021002C02D0641E4E
:100280000155FAE710BD2DE9FE4F804681EA0300D3
:10029000C00F0C46009021F0004123F00045B8EB60
:1002A0000200A94105D24046214690461C460B4615
:1002B000024623F00040104347D0270DC7F30A0041
:1002C000C3F30A510290401A019040286BDAC3F33D
:1002D000130040F4801B0098924620B10023D2EB1B
:1002E000030A63EB0B0B01985946C0F140025046DC
:1002F00000F08DF906460D4650465946019A00F029
:10030000A5F910EB08006141002487EA115284EA44
:10031000E7731A4340D0009A62B3019A012A4FEA68
:10032000075215DC001B61EB02014FF0004202EAAC
:100330000752CDE90042001C41F5801132462B46A0
:1003400000F0DCF903B0BDE8F08F40462146F9E744
:10035000001B61EB0201001C41F5801300185B419A
:100360002018A2F5001747EB030140EAD570B61933
:100370006D4111E06D084FEA360645EAC0754FEA57
:100380000752001B61EB0201001C41F58011490876
:100390004FEA30000019514132462B4603B0BDE808
:1003A000F04F00F09CB90098012240000023D0EBF0
:1003B000020263EBE073009821464FEAE074B8EB69
:1003C000000061EB0401E9E783F000435BE781F0A3
:1003D000004158E72DE9FE4F81EA030404F0004490
:1003E00021F0004100944FF0000B23F0004350EA4D
:1003F00001045ED052EA03045BD0C3F30A54C1F394
:100400000A552C44A4F2F3340194A0FB0254C1F326
:10041000130141F48011C3F3130343F4801301FB70
:10042000024400FB034E840A970A44EA815447EAD7
:100430008357A4FB076802958D0A05FB07854FEAE1
:10044000932C04FB0C542705029D4FEA065847EAFB
:100450001637B5EB08056EEB070C870E920E47EAD0
:10046000811742EA8312A7FB0201B6EB0B0164EB92
:1004700000042B0D43EA0C335E1844EB1C50DA46A3
:100480005146E7FB0201C5F313044FEA0B3343EA7D
:1004900014534FEA0432019C43EA0603A4F10C040E
:1004A0000294009CCDE900B400F028F903B0BDE847
:1004B000F08F00200146F9E72DE9F04D81EA0304B1
:1004C00004F0004B21F0004514464FF0000A23F0E1
:1004D000004150EA050220D054EA01021DD0C5F3C4
:1004E0000A570246C5F31303C1F31300C1F30A56BA
:1004F00040F4801543F48013A7EB0608101BD64682
:1005000008F2FD3873EB050002D308F1010801E0A1
:1005100092185B41B8F1000F03DA00200146BDE8F4
:10052000F08D00204FF48011064684460EE0171B24
:1005300073EB050705D3121B63EB050306434CEA77
:10054000010C49084FEA300092185B4150EA01075C
:10055000EDD152EA030012D082EA040083EA0501D9
:10056000084305D0101BAB4106D20122002306E050
:1005700000224FF0004302E06FF0010253101AEB2B
:1005800006004CEB085110EB0A0041EB0B01BDE8F3
:10059000F04D00F0A4B80EB540F2334102910021B5
:1005A000CDE900110A460B4600F0A8F803B000BDE3
:1005B00000F0004230F000400AD0C10D01F560713A
:1005C000C0F3160042EA0151C208400711437047C8
:1005D00000200146704701F0004330B421F0004193
:1005E00050EA010206D00A0DA2F56072C1F31301B0
:1005F000002A02DC30BC00207047440F44EAC104EA
:10060000C100E01830BC00EBC25000F031B8202A25
:1006100004DB203A00FA02F1002070479140C2F159
:10062000200320FA03F3194390407047202A04DB8B
:10063000203A21FA02F00021704721FA02F3D0405B
:10064000C2F120029140084319467047202A06DB78
:10065000CB17203A41FA02F043EAE07306E041FA90
:1006600002F3D040C2F1200291400843194670477E
:100670000029A8BF7047401C490008BF20F00100B6
:10068000704710B4B0FA80FC00FA0CF050EA010494
:1006900004BF10BC704749B1CCF1200421FA04F426
:1006A00011FA0CF118BF012121430843A3EB0C01FF
:1006B000CB1D4FEA00614FEA102042BF002010BC62
:1006C000704700EBC35010440029A4BF10BC704712
:1006D000401C490008BF20F0010010BC704710B555
:1006E000141E73F1000408DA401C41F10001921855
:1006F0005B411A4301D120F0010010BD2DE9F04DFE
:1007000092469B4611B1B1FA81F202E0B0FA80F252
:1007100020329046FFF77BFF04460F4640EA0A006E
:1007200041EA0B0153465A46084313D0114653EA97
:10073000010019D0C8F140025046FFF777FF054687
:100740000E46504659464246FFF761FF084305D022
:10075000012004E020463946BDE8F08D0020054325
:1007600046EAE0762C4337430A986305E40AA0EB97
:1007700008000022FD0A44EA47540A3002D500204E
:100780000146E9E7010510196941DDE9084500194D
:100790006941BDE8F04DA2E72DE9F04D00231A466E
:1007A0001B1A8A4103DB00200146BDE8F08DC1F32E
:1007B0000A52C1F3130141F480154FF0000BD10729
:1007C00002D100186D41521E0027044640F2FF116D
:1007D000384601EB620A3E468046024600204FF44E
:1007E0008011FFF723FFC2197141BB1846EB0100CE
:1007F000B4EB030C75EB000C04D3E41A65EB0005B5
:1008000017460E46241908F101006D418046342830
:10081000E3DDF91946EB0600091BA84103D24FF0AE
:10082000FF32134601E0002213461BEB070046EBA4
:100830000A51BDE8F04DFFF752BF00001CB5094852
:100840000090094801900546009C06E0E06840F0F1
:10085000010394E8070098471034AC42F6D3FFF741
:1008600097FC0000289900084899000870B58C187A
:1008700010F8015B15F0070301D110F8013B2A11B4
:1008800006D110F8012B03E010F8016B01F8016BA1
:100890005B1EF9D12B0705D40023521E0DD401F89D
:1008A000013BFAE710F8013BCB1A921C03E013F866
:1008B000015B01F8015B521EF9D5A142D8D300209B
:1008C00070BD000006F022FC012007F0B7F9F9E73F
:1008D00040F60040C4F202004FF40071012201F022
:1008E00075BF000040F60040C4F202004FF40071F2
:1008F000002201F06BBF000040F60040C4F202008D
:100900004FF40061012201F061BF000040F6004099
:10091000C4F202004FF40061002201F057BF000052
:1009200070B50446FFF7DEFF922000F041FC9220F4
:1009300000F03EFC552000F03BFC40F2E825C2F2FE
:100940000005E870552000F033FC2871552000F0B8
:100950002FFC6871552000F02BFCA871552000F089
:1009600027FCE871552000F023FC2872FFF7B0FF48
:1009700040F2E006B5F90300C2F20006317800EE5D
:10098000100A96ED012AB8EEC01A94ED080A22EE7C
:10099000011AC9B194ED0C2A21EE001A31EE421A67
:1009A00084ED001AB5F9050096ED011A03EE100A60
:1009B000B8EEC33A94ED0D2A21EE033A23EE003A45
:1009C00033EE422A10E000BF20EE011A84ED001A37
:1009D000B5F9050096ED011A02EE100AB8EEC22A2A
:1009E00021EE022A20EE022A84ED012AB5F9070041
:1009F00002EE100AB8EEC22A21EE021A20EE010A17
:100A000084ED020AFFF782FF802000F0D1FB552021
:100A100000F0CEFBE870552000F0CAFB287155208D
:100A200000F0C6FB6871552000F0C2FBA87155208C
:100A300000F0BEFBE871552000F0BAFB287255208B
:100A400000F0B6FB6872552000F0B2FBA872FFF709
:100A500053FFE8780F2845D1B5F90500317801EE4C
:100A6000100A96ED020AB8EEC11A19B394ED092ADC
:100A7000B5F9070021EE001AB5F9091031EE421A56
:100A800002EE100A94ED0A3AB8EEC22A84ED031A77
:100A900001EE101A94ED0B4A22EE002AB8EEC11AAC
:100AA00032EE432A21EE000A84ED042A30EE440A95
:100AB00016E000BFB5F90700B5F9091020EE011ADC
:100AC00002EE100A84ED031A01EE101AB8EEC22AE3
:100AD000B8EEC11A20EE022A20EE010A84ED042AA3
:100AE00084ED050AFFF7FEFEA22000F061FBA220C4
:100AF00000F05EFB552000F05BFBE870552000F035
:100B000057FB2871FFF7E4FEE8782979C00040EA36
:100B100051114FF600020023CFF6FF72B3EB902F76
:100B200018BF114300EE101AB8EEC00AB4EE001A56
:100B300020EE010AB3EE071A30EE010A84ED070A2F
:100B400070BD00002DE9F04F81B02DED108B0C46EB
:100B500040F24C31C2F2000140F2E82A0860C2F2D1
:100B6000000A00208AF8000006F086FD9AF80010BE
:100B700008438AF8000006F01DFE9AF80010002CC9
:100B800040EA01008AF8000000F0CA8000F062FD2F
:100B90008AED050A00F05EFD9AED051AB2EE04AA90
:100BA00030EE410AB4EE4A0AF1EE10FA40F3EC805E
:100BB00042F2CB70C3F6CB204DF6142146F28422CC
:100BC0000AF14803CBF61331CBF6452207C349F2AD
:100BD0000A00C4F21910CAF8600000209FED710AE3
:100BE000C4F22020CAF83C009FED6F1A9FED6F9A67
:100BF00081EE000A9FED6EAA9FED6E8A002641F2FB
:100C00006F7B8AED110A00BFFFF76CFE922000F0A7
:100C1000CFFA922000F0CCFA552000F0C9FA044631
:100C2000552000F0C5FA0546552000F0C1FA81466E
:100C3000552000F0BDFA0746552000F0B9FA80466D
:100C4000552000F0B5FA8246FFF742FE44EA05203F
:100C500000B200EE100A40F2E000C2F2000090ED97
:100C6000011A40F2E820C2F20000B8EEC00A90ED8E
:100C7000112A21EE000A90ED153A22EE000A80EDCD
:100C8000090A20EE090A23EE0A3A33EE000A90ED33
:100C9000164A90ED175A80ED150A49EA072000B26E
:100CA00000EE100AB8EEC00A21EE000A40F2E82079
:100CB00022EE000AC2F2000080ED0A0A20EE090AC4
:100CC00024EE0A3A33EE000A80ED160A48EA0A20BA
:100CD00000B200EE100AB8EEC00A40F2E82421EE9D
:100CE000000AC2F2000422EE000A84ED0B0A20EE94
:100CF000090A25EE0A1A31EE000A84ED170AB0EE51
:100D0000480A00F03BFC5E4506F10106FFF47CAFAB
:100D10002078C0B2BDEC108B01B0BDE8F08F00BFF1
:100D200042F2CB7C4DF2F241C3F6CB2C4DF61422AD
:100D3000C3F68271CBF6133246F2842342F29B074C
:100D4000CAE9111C0AF14C01CBF64523CBF65267D8
:100D50004BF67F3641F63E3549F20A048CC100213C
:100D6000CBF6A746C4F21D15C4F21914C4F2202113
:100D7000CAE91665CAF86040CAF83C10C0B2BDECBA
:100D8000108B01B0BDE8F08F9FED0BCADFED0B8A31
:100D90009FED089AB6EE00BA0024B4EE00DAB3EE86
:100DA00007EA19E00A901941C3F51C41CDCC4C3E2D
:100DB000CDCC4C3F6F12033A0080BB459A99193E47
:100DC00000F048FC9AED051A30EE410AB4EE4A0AEA
:100DD000F1EE10FA3FF7ECAE9FEDF20A00F0CEFB19
:100DE0004FF0000BCAF86040CAE91244CAF85040FC
:100DF000FFF778FD922000F0DBF9922000F0D8F99F
:100E0000552000F0D5F98046552000F0D1F905466F
:100E1000552000F0CDF98146552000F0C9F907466C
:100E2000552000F0C5F90446552000F0C1F90646EA
:100E3000FFF74EFD48EA052000B200EE100A40F22E
:100E4000E000C2F2000090ED011A49EA072000B26A
:100E500002EE100A44EA062000B2B8EEC00AB8EE6C
:100E6000C22A03EE100A21EE000A21EE022AB8EE91
:100E7000C33A21EE031A22EE023A20EE004A34EE83
:100E8000033A21EE014A34EE033AF1EEC39A8AEDB9
:100E9000090A9AED180A8AED0A2A8AED0B1A30EE31
:100EA000290A8AED180AFFF731FD802000F080F949
:100EB000552000F07DF90446552000F079F95520C1
:100EC00000F076F98146552000F072F9064655206B
:100ED00000F06EF98046552000F06AF9054655206D
:100EE00000F066F98246552000F062F90746FFF7E8
:100EF00003FD0F2C3CD149EA062000B200EE100A97
:100F000040F2E000C2F2000040F2E82190ED021A47
:100F1000C2F20001B8EEC00A91ED122A21EE000AD9
:100F200048EA052081ED0C0A30EE020A00B281ED9C
:100F3000120A00EE100A91ED133AB8EEC00A21EE43
:100F4000000A4AEA072081ED0D0A30EE030A00B2DA
:100F500081ED130A00EE100A91ED144AB8EEC00AB2
:100F600021EE000A81ED0E0A30EE040A81ED140A2A
:100F700040F2E82AC2F2000ABBF1000F3ED09AED1F
:100F80000C0AB4EE6B0AF1EE10FAC8BFF0EE40BAEC
:100F90009AED0D1AB4EE6F0AF1EE10FAB4EE6C1A77
:100FA000B8BFF0EE40FAF1EE10FAC8BFF0EE41CA59
:100FB0009AED0E0AB4EE6E1AF1EE10FAB4EE6A0A69
:100FC000B8BFF0EE41EAF1EE10FAB4EE6D0AC8BF18
:100FD000F0EE40AAF1EE10FAF4EE4F9AB8BFF0EE40
:100FE00040DAF1EE10FAF4EE489AC8BFB0EE69FAB2
:100FF000F1EE10FAB8BFB0EE698A0FE0DAED0CBA84
:10100000DAED0EAADAED0DCAF0EE6ADAF0EE6CEA6D
:10101000F0EE6BFAB0EE69FAB0EE698A3FEE480A7C
:10102000B4EE4B0A8AED040A3BEEEF2A3CEEEE1AD0
:10103000F1EE10FA3AEEED0A8AED062A8AED071A69
:101040008AED080A19DCB4EE682AF1EE10FA14DC15
:10105000B4EE681AF1EE10FA0FDCB4EE680AF1EEA5
:1010600010FA0ADCB0EE490A00F088FA41F26F701B
:1010700083450BF1010BFFF4BBAE9AED120A9AED1A
:10108000131A9AED182A9AED143A82EE0C2A80EE81
:101090000C0A81EE0C1A83EE0C3A8AED182A8AEDBE
:1010A000120A8AED131A8AED143AFFF71BFCA220EC
:1010B00000F07EF8A22000F07BF8552000F078F8D0
:1010C0000446552000F074F80546FFF701FCE000E7
:1010D000002440EA5511B4EB902F4FF60000CFF6F4
:1010E000FF7018BF014300EE101AB8EEC00A20EEE0
:1010F0000D0A30EE0E0A8AED0F0A9AED040ABAF8CC
:101100000C00B4EE4B0A0130F1EE10FAAAF80C0014
:101110003FF756AE9AED180A9FED231A30EE011AEA
:10112000B0EEC11AB4EE4B1AF1EE10FA3FF748AE2A
:101130009AED061AB4EE681AF1EE10FA3FF740AED7
:101140009AED071AB4EE681AF1EE10FA3FF738AECE
:101150009AED081AB4EE681AF1EE10FA3FF730AEC5
:101160009AED121A9FED112AB0EEC11AB4EE421A8E
:10117000F1EE10FA3FF724AE9AED131AB0EEC11A51
:10118000B4EE421AF1EE10FA3FF71AAE9AED141AC5
:10119000B0EEC11AB4EE421AF1EE10FA3FF710AEFB
:1011A00022E500BF0AD7A33BCDCC1CC10AD7233C04
:1011B00080B582B040F24C31C2F200010B688DF86C
:1011C00007004FF47A7C0DF107010DF10602184675
:1011D0000123CDF800C001F095FF9DF8060002B094
:1011E00080BD000080B58AB03822019200224B6891
:1011F0000968CDE9032208220DF1040C05920CF1D7
:101200001802CDE9071309AB614600F075FB002811
:1012100018BF01200AB080BDB0B58AB0DDE90E4E1E
:1012200001910021CDE903110821150A8DF81D2037
:101230001A0A059101A98DF81E20220A01F1180C45
:101240008DF820204FEA1E228DF81F308DF82220C5
:1012500009AB62468DF81C508DF821408DF823E0D3
:1012600000F04AFB002818BF01200AB0B0BD000002
:10127000FEE7000040F6D400C2F2000000F098BC87
:1012800040F6D400C2F2000000F092BC40F62010FC
:10129000C2F2000000F08CBC40F62010C2F2000048
:1012A00000F086BCF0B58BB040F6D404C2F2000466
:1012B00001AD00260127204629460796CDE905669F
:1012C000CDE90366CDE90166CDE908770A9600F01D
:1012D00067FB2046022100F0F7FA204600F028FFC5
:1012E0000E2006A9C1C140F62016C2F20006CDE9C3
:1012F000097030462946059700F052FB3046102110
:1013000000F0E2FA304600F013FF2046022100F020
:10131000DBFA3046022100F0D7FA0BB0F0BD000036
:10132000B0B52DED028B0446B0F904009FED3C1AD8
:1013300000EE100AB8EEC00A9FED3A2A20EE010A2C
:1013400080EE020AE0800D46B2EE048A9FED363A46
:1013500084ED080A0888C1BA00EE101AB8EEC00A77
:1013600080EE080A00BA000C208030EE002A22EE3F
:10137000011A81EE031A84ED020A84ED031A6888CB
:101380009FED2A1AC1BA00EE101AB8EEC00A80EE1C
:10139000010A9FED271A00BA000C608080EE011A46
:1013A00084ED040A9FED230A21EE000A84ED060A6B
:1013B000A88800BA000CA080FFF7EDF841EC100BF4
:1013C0009FED0F1B9FED102B9FED113B9FED124BDF
:1013D00006F0F2FB51EC100BFFF7FDF8E061E88836
:1013E000C1BA00EE101AB8EEC00A80EE080A00BAC0
:1013F000000CE08484ED050ABDEC028BB0BD00BF9B
:101400000000000000000000000000000000E040BC
:1014100000000060FB2109C000000060FB210940C2
:10142000DB0F494000FEFF46000070420000C8424A
:10143000F4FDB43F9A99993FB0B50446B0F9040061
:101440009FED371A00EE100AB8EEC00A9FED352A5C
:1014500020EE010A80EE020AE0800D46B2EE043A68
:101460009FED314A84ED080A0888C1BA00EE101ACF
:10147000B8EEC00A80EE030A00BA000C208030EEFD
:10148000003A23EE011A81EE041A84ED020A84ED7B
:10149000031A68889FED251AC1BA00EE101AB8EE3B
:1014A000C00A20EE010A80EE020A9FED211A00BA5E
:1014B000000C608084ED040A20EE010A84ED060A27
:1014C000A88800BA000CA080FFF765F841EC100B6B
:1014D0009FED0B1B9FED0C2B9FED0D3B9FED0E4BDE
:1014E00006F06AFB51EC100BFFF775F8E061A87984
:1014F00084F82400E87984F82500B0BD00BF00BF5F
:101500000000000000000000000000000000E040BB
:1015100000000060FB2109C000000060FB210940C1
:10152000DB0F494000FEFF460000704200005C42B5
:10153000CDCC4C3F40F66C10C2F2000000F0C8BEAB
:1015400040F6CC10C2F2000000F0C2BE40F6EC2023
:10155000C2F2000000F0BCBE40F62C20C2F2000037
:1015600000F0B6BE40F68C20C2F2000000F0B0BE23
:1015700000F00EF9012006F061FBF9E741F20400EA
:1015800040F21822CEF20000C2F20002016892ED91
:10159000001AB8EE411A21EE000A16E00268521A4B
:1015A00001EE102AB8EE411AB4EE410AF1EE10FA3B
:1015B000D8BF70470268521A01EE102AB8EE411ADD
:1015C000B4EE410AF1EE10FA15DD0268521A01EE8E
:1015D000102AB8EE411AB4EE410AF1EE10FA0ADD13
:1015E0000268521A01EE102AB8EE411AB4EE410A0E
:1015F000F1EE10FAD2DC704710B582B041F2040E61
:10160000CEF2000EDEF80010009140F21821C2F276
:101610000001DDF800C002680B68009C0460DEF881
:101620000000019001980C69A04202D2C868013004
:10163000C860ACEB020000EE100A01EE103A01980F
:10164000B8EE400AB8EE411A80EE010A086102B015
:1016500010BD00002DE9F04782B041F20400CEF247
:101660000000016840F2182A00910068C2F2000AE6
:1016700001900199DAE90302002791423CBF013051
:10168000CAF80C0001990023CAF81010009E4FF010
:10169000FF31E0FB0167DAE90049DAF808803046FB
:1016A00039462246CAE90667FEF78AFD0546A0FBD1
:1016B000040201FB0421341A67EB0106204631467F
:1016C0004A460023CAF82050FEF77AFD87B2AAF8EE
:1016D000240007FB09F0201A66F1000142460023AE
:1016E000FEF76EFD01EE107A9FED0D2A00EE105A06
:1016F000B8EE411A81B2B8EE400A21EE021A31EE7C
:10170000000A01EE101A9FED072AB8EE411A21EEE9
:10171000021A31EE000AAAF8260002B0BDE8F087EE
:101720006F12833ABD37863510B54EF6FC5CCEF2AB
:10173000000CDCF8002044F24023C0F20F0342F01A
:101740008072584344F6D353CCF8002041F2000293
:10175000C1F26203CEF200024FF0000CA0FB033E88
:10176000C2F804C04DF683611368C4F21B31A0FBBC
:10177000011443F00101116040F21821C2F200018E
:101780004FEA9E12A30C81E80D1010BD70470000B7
:1017900070B540F24025C2F20005B5F906009FED94
:1017A000401A00EE100A40F25036B8EEC00AC2F2FB
:1017B000000620EE010A06F2D44080ED000A06F28F
:1017C000CC449FED380A214606F002FD06F59A60EA
:1017D00094ED000A9FED341A90ED002A20EE010AE4
:1017E000B5F9021030EE020A80ED000A06F2E4407C
:1017F00000EE101A9FED2D1A90ED002AB8EEC00AE7
:1018000020EE010A9FED2A1A30EE022AB4EE412A98
:10181000F1EE10FA80ED002A02DD80ED001A08E0FA
:101820009FED241AB4EE412AF1EE10FAB8BF80ED14
:10183000001A06F59D6090ED002A9FED1D1A30EE0E
:10184000020AB4EE410AF1EE10FA80ED000A03DD5F
:1018500080ED001A09E000BF9FED161AB4EE410AB0
:10186000F1EE10FAB8BF80ED001AB5F9001006F5D8
:101870009B6001EE101A9FED102A90ED000AB8EE61
:10188000C11A21EE021A31EE000A80ED000A9FED26
:101890000B0A03F08DFC0A20BDE8704006F0CEB9BB
:1018A00017B7513ACDCC4C3D0AD7233CACC5A7362F
:1018B0009A99193ECDCCCC3D17B751B8DB0F4940B2
:1018C00072B600BFFEE7000090F82020013A012A1E
:1018D00008D8006800F11402002013681943116051
:1018E000704700BF00F1240201204FF480211368EB
:1018F000194311607047000010B590F820E0D0F84F
:1019000000C0AEF1010EBEF1010FDCF808E011D805
:101910001EF0E05F18D0CEF3016E012000FA0EF049
:1019200018608B68D3B14868CC6844EAC0000343B0
:1019300018E000BF00F1240101204FF480220B6861
:101940001A430A6010BD00BF00F1240101204FF4CA
:1019500000120B681A430A6010BD00BF0868CB680C
:1019600043EA40530CEB0E10C0F880310B69C0F80D
:101970008431097D012905D100F5C2710B6843F45A
:1019800080730B605168C0F88C11126800F5C0714B
:10199000C0F88821002001220B681A430A6010BD9C
:1019A00090F82020013A012A30D8B0B546F2006004
:1019B000C4F20000026842F001020260026822F4F0
:1019C0007C520260D1F814E0CC694A6A0368012CA9
:1019D00043EA022202600EF01F024FF0010303FAF5
:1019E00002F2C3696FEA020C23EA0203C36113D057
:1019F0002CBBC36803EA0C03C360CB688C8844EA41
:101A0000034300EBCE0423640B4611E0416A41F42A
:101A10008021416201207047C3681343C3600B6893
:101A20008C8844EA034300EBCE04236401F10C03E9
:101A30008C681B8843EA044300EBCE04636443686C
:101A40008D6943EA0204D1F810E0096A002D08BF4D
:101A500003EA0C0444604369BEF1000F43EA020448
:101A600008BF03EA0C040129446102D1C169114392
:101A7000C161016821F0010101600020B0BD0000DA
:101A80007047000010B590F82040013C012C7BD835
:101A9000D0F800C000290CBFDCF80C40DCF8104086
:101AA000A4077BD00CEB011CDCF8B0410CF5D87E10
:101AB00014F004049460DCF8B04119BFE4085460E9
:101AC000640D1460DEF800400CF5DA7E04F00204C8
:101AD000D460DCF8B44124075ABFDEF8004004F0BB
:101AE0000F0408241461DEF800400029C4F3072421
:101AF0009461DEF800404FEA14445461DCF8B821E8
:101B00001A70026802EB0112D2F8B8214FEA1222D1
:101B10005A70026802EB0112D2F8B8214FEA124261
:101B20009A70026802EB0112D2F8B8214FEA1262F1
:101B3000DA70026802EB0112D2F8BC211A71026855
:101B400002EB0112D2F8BC214FEA12225A7102684C
:101B500002EB0112D2F8BC214FEA12429A710268DC
:101B600002EB0112D2F8BC214FEA1262DA7100686E
:101B70000CBF00F10C0100F11001002020220B68C5
:101B80001A430A6010BD00BF00F1240101204FF488
:101B900080220B681A430A6010BD00BF00F12401C7
:101BA00001204FF400120B681A430A6010BD0000B8
:101BB0002DE9F04F81B0044600684669D0F80490E2
:101BC0008768D0F80CB0D0F810A0D0F81880F107D2
:101BD00004D1002530071DD424E000BFF90710D040
:101BE0000121BA07816009D4780700F1AF80380776
:101BF00000F1B680204600F0C9FA02E0204600F06D
:101C0000C7FA0025F80500F18780F80300F1B180DC
:101C1000300707D51BF0100004D0206845F400758C
:101C20001021C160700708D51BF0080005D020689E
:101C30000821C160204600F0FFF9B00706D52068F2
:101C4000C068800702D0204600F0F8F9700607D57A
:101C50001AF0100004D0206845F48065102101615D
:101C6000B00608D51AF0080005D0206808210161E7
:101C7000204600F01DFAF00606D5206800698007AE
:101C800002D0204600F016FAB00308D519F0100073
:101C900005D0206810214160204600F047FAF0038B
:101CA00008D519F0080005D02068082141602046B9
:101CB00000F078FA300440F19B805FEA497040F10F
:101CC000948006F4807008EA102028435FEA887147
:101CD000014648BF41F00201B20558BF01465FEA24
:101CE00048700D4648BF45F00405700558BF0D46C5
:101CF000300540F17A8018F0700000F076801038DE
:101D0000000905286CD8DFE800F003595D616569BA
:101D100045F0080564E000BF20684FF48071BA0503
:101D200081600BD4780515D438051DD4204600F009
:101D300031FAF8037FF56CAF1BE000BF204600F0DE
:101D40002BFAF8037FF564AF13E000BF4FF4006592
:101D500058E700BF05F50055F8037FF559AF08E0D7
:101D60004FF480554EE700BF05F58045F8037FF539
:101D70004FAF20684FF48031BA0381600AD47803F2
:101D800010D4380314D4204600F008FA30073FF589
:101D900041AF47E7204600F003FA30073FF53AAF7E
:101DA00040E700BF05F5004530073FF533AF39E7A1
:101DB00005F5803530073FF52DAF33E745F01005C9
:101DC0000EE000BF45F020050AE000BF45F04005E9
:101DD00006E000BF45F0800502E000BF45F48075D5
:101DE0002068816921F070018161206804214160CF
:101DF00055B1606A40EA05012046616201B0BDE864
:101E0000F04FFFF73DBE00BF01B0BDE8F08F00000E
:101E1000002804BF01207047B0B5044690F82000A8
:101E200010B9204600F06EF82068016841F0010109
:101E3000016000F0D1FC054620684168C90705D162
:101E400000F0CAFC401B0B28F6D310E0016821F01B
:101E50000201016000F0C0FC054600BF2068416837
:101E600089070DD500F0B8FC401B0B28F6D3606A3B
:101E7000052140F400306062012084F82010B0BDDC
:101E8000217E0268012922F0800208BF80320260B0
:101E9000617E0268012922F0400208BF40320260E0
:101EA000A17E0268012922F0200208BF20320260D0
:101EB000E17E0268012922F0100218BF1032026090
:101EC000217F0268012922F0080208BF083202605F
:101ED000617F0268012922F0040208BF0432026017
:101EE000D4E901C2D4E9033561691A432A43114395
:101EF000ACF101021143C16100200121606284F84C
:101F00002010B0BDB0B586B0006846F60002C4F23D
:101F1000000200219042CDE90411CDE902110191A6
:101F200036D046F20041C4F20001884240F082807F
:101F300040F63C01C2F200010A6843F64000C4F2D8
:101F40000200531C0B6052B900210091016841F05E
:101F500000710160016801F0007100910099002199
:101F6000009150F8101C152441F0080140F8101C95
:101F700050F8100C142500F008000090009840F272
:101F80000040C4F2020000F50060032136E000BF0B
:101F900043F64000C4F202000091016841F0806104
:101FA0000160016801F080610091009940F63C01F8
:101FB000C2F200010A68531C0B6052B90021009163
:101FC000016841F000710160016801F00071009149
:101FD00000990021009150F8101C412441F00201A9
:101FE00040F8101C50F8100C402500F00200009042
:101FF000009840F200406021C4F2020001910221E9
:10200000029100210391032104910921059101A965
:1020100000F004FB28460521002200F09FFC284622
:1020200000F08AFC20460521002200F097FC2046A3
:1020300000F082FC06B0B0BD70470000B0B501688A
:1020400046F20042C4F20002914201D0B0BD00BF8E
:1020500040F6FC05C2F2000505F11C0400212A46E9
:102060002346FFF70FFD286852280DD0532815D0BE
:10207000972818BFB0BD40F25030C2F20000214690
:10208000BDE8B040FFF7D8B940F25030C2F20000CE
:102090002C302146BDE8B040FFF742B940F2503045
:1020A000C2F2000058302146BDE8B040FFF738B911
:1020B00070470000B0B5016846F60002C4F20002A5
:1020C000914201D0B0BD00BF40F64815C2F20005F4
:1020D00005F11C0401212A462346FFF7D3FC28689A
:1020E00056280FD0572817D09B2818BFB0BD40F2F4
:1020F0005030C2F2000084302146BDE8B040FFF706
:102100009BB900BF40F25030C2F20000B03021460F
:10211000BDE8B040FFF704B940F25030C2F2000011
:10212000DC302146BDE8B040FFF7FAB87047000048
:10213000B0B5044690F8200001281DD1022084F893
:1021400020002068016821F00101016000F044FBDB
:10215000054600BF20684068C00713D000F03CFB74
:10216000401B0B28F6D3606A40F400306062052003
:1021700084F820000120B0BD606A40F40020606255
:102180000120B0BD00206062B0BD000070470000BB
:102190007047000070470000704700007047000063
:1021A0007047000070470000B0B5D0F808E0BEF1FD
:1021B000800F05D14FF4807141650120B0BD00BF93
:1021C00090F834C0BCF1010F04BF0220B0BD4FF045
:1021D000010C80F834C090F835C0BCF1010F4FF00D
:1021E000020C18D180F835C00068049DD0F800C0FA
:1021F000BEF1400F4CF48024046003610B4645603F
:1022000004BF13460A468360C26001684FF0000CA9
:1022100041F0010101606046B0BD000070B5866DFF
:10222000044600F0D9FA94F83510022928D1054661
:102230002068216C026822F016020260426922F0D6
:102240008002426109B9A16C19B1016821F008014D
:102250000160016821F00101016000BF2068006891
:10226000C00715D000F0B8FA401B0628F6D320208E
:102270006065032084F83500002184F8341070BDB7
:10228000802060650120002184F8341070BD00BFFB
:10229000E06D3F2101FA00F0B060012084F83500C4
:1022A0000020002184F8341070BD000090F8351033
:1022B000022909D1052180F835100068016821F054
:1022C00001010160002070478021416501207047B5
:1022D000F0B581B004460020009040F24C10C2F2EC
:1022E00000000268D4E9166048F2B5133768082187
:1022F000C1F64E3381403942A2FB03250CD022683F
:1023000013685B0708D5136823F004031360B160FA
:10231000616D41F00101616501218140394208D0C0
:1023200022685269120604D5B160616D41F0020164
:10233000616504218140394208D022681268920701
:1023400004D5B160616D41F00401616510218140E7
:10235000394217D020680268120713D5B1600268AD
:102360000168520308D4C90508D4016821F00801A6
:102370000160216C21B905E008033FD4216C09B14B
:1023800020468847E16D202000FA01F23A4241D010
:1023900020680368DB063DD5B26094F835300268EA
:1023A000052B1BD122F016020260426922F0800246
:1023B0004261226C0AB9A26C1AB1026822F00802CA
:1023C00002603F208840B060012084F83500216D14
:1023D0000020002984F8340052D157E001685203EC
:1023E00010D4C90512D4016821F010010160012048
:1023F00084F83500002084F8340007E0A16C00293F
:10240000BED1BFE7080301D4616C00E0E16B09B104
:1024100020468847606DC8B3606DC0072ED0052088
:1024200084F835002068A90A026822F001020260DF
:10243000009A01328A4200921AD80268D20717D055
:10244000009A01328A42009212D80268D2070FD055
:10245000009A01328A4200920AD80268D20707D055
:10246000009A01328A42009202D80268D207DFD174
:10247000012084F83500002084F83400E16C29B193
:10248000204601B0BDE8F040084700BF01B0F0BDF4
:102490002DE9F041044600F09FF9ECB10546022019
:1024A00084F835000020216884F83400086820F0A2
:1024B0000100086021680868C00711D000F08CF99D
:1024C000401B0528F6D9032520230320636584F8E3
:1024D0003550BDE8F08100BF0120BDE8F08100BFAC
:1024E000086848F23F02CFF21002D4E9013500EA51
:1024F000020C04F10C0898E8C10143EA0C032B43D9
:102500001843D4E9072E304338431043626A40EA47
:102510000E00042A40EA08031CD1206BD4E90A2EDD
:1025200040EA0E00184308604869BEF1000F20F031
:10253000030040EA020040F0040C11D0B8F5005F3F
:1025400036D0B8F1000F45D1022A46D0012A3BD03F
:1025500032B942E00B60486920F0070040EA020C03
:1025600001F0F8004AF6AB221038CAF6AA22A0FB06
:1025700002231A0949F2A803C1F814C0C0F60003E7
:102580009A5C40F2FF335F284FF03F0021EA0301DD
:1025900000FA02F088BF0431C4E9161288600023F3
:1025A00001250020636584F83550BDE8F08100BF47
:1025B000032AD5D8012540230120DFE802F0030ECD
:1025C000030500BF82E700BFAEF1C070B0FA80F033
:1025D000400904E0032A04D3C2D1CEF300600028EE
:1025E000BED0012540230120636584F83550BDE845
:1025F000F0810000B0B5044600F0EEF8054640F268
:102600000C00C2F200000078611C18BF044400BF37
:1026100000F0E2F8401BA042FAD3B0BD2DE9F04F24
:1026200082B000F13E4707F1FF77860546EA97271B
:1026300041F60046C4F20206082243F6004EB042BC
:1026400008BF0722C4F2010E072F38BF3A46002602
:1026500000274FF00008009209E000BF08F10108D0
:102660000237B8F1100F06F1040600F0A3800D68E0
:10267000012202FA08F415EA0409EFD0D1F804B0F7
:1026800003220BF0030CACF10105BA40012D6FEAF7
:10269000020A0FD88268CD6802EA0A02BD402A43C6
:1026A00082604268A243CBF3001404FA08F4224388
:1026B000426005E0BCF1030F02D14FF0030C1EE0B5
:1026C000C2688C6802EA0A02BC402243BCF1020FD5
:1026D000C26014D16FF0030202EA58020244D2F839
:1026E00020C006F01C040F230D69A3402CEA03034D
:1026F000A5402B431362D1F804B00BF0030C026821
:102700000CFA07F302EA0A021A431BF4403F026084
:10271000A4D0002243F644030192C4F202031A68D3
:102720004FF6084C42F480421A601A68CFF6FF7CDC
:1027300002F480420192019A28F00302724452F896
:102740000C3006F00C050F24AC40A343009C04FAA7
:1027500005F52B4342F80C30DEF808204B6842EABE
:10276000090543F60C4CDC0258BF22EA0905CEF8F5
:102770000850C4F2010CDCF800209C0242EA090572
:1027800058BF22EA0905CCF80050DEF804209C036B
:1027900042EA090558BF22EA0905CEF80450DEF8DE
:1027A0000020DB0342EA090558BF22EA0905CEF8FA
:1027B000005053E702B0BDE8F08F0000426902EA22
:1027C0000103914341EA034181617047002A08BF38
:1027D000090481617047000044F6AC20C2F2000099
:1027E0000068704740F20C0044F6AC21C2F20000D1
:1027F000C2F2000100780A681044086070470000C7
:1028000080B543F60040C4F20200016841F4007153
:102810000160016841F480610160016841F48071E8
:102820000160032000F0C6F80F2000F005F800F06A
:1028300061F8002080BD000070B586B0002543F629
:1028400040010195C4F202010A68044642F0020206
:102850000A60096801A801F0020101910199694625
:1028600000F06AF9049E002E18BF012600F084F9DA
:102870004DF68361B040C4F21B31A0FB01014FF063
:10288000FF3000EB914140F6EC3040F20042C2F2E2
:102890000000C4F2000240F2E733C0E90021C0E9C1
:1028A00002530561856100F037FE054610B12846E8
:1028B00006B070BD40F6EC30C2F2000000F05CFEE5
:1028C00005460028F3D11D2000F036F80F2C0DD856
:1028D0001D2021460022002500F040F840F21000A3
:1028E000C2F200000460284606B070BD01252846EB
:1028F00006B070BD82B0002043F640010190C4F2E2
:1029000002014A6842F480424A604A6802F4804206
:102910000192019A00900868002240F080500860FF
:1029200008680F2100F08050009000986FF00100BF
:1029300002B000F013B80000002848BF704700F054
:102940001F01012202FA01F11C2202EAD0004EF21C
:102950000012CEF2000281507047000010B54EF612
:102960000C5CCEF2000CDCF80030C3F3022E8EF0CB
:102970000704042C28BF0424BEF103034FF0FF3EDC
:102980000EFA04F438BF0023A14399400EFA03F372
:102990009A43114300F00F0200F160430901043A29
:1029A00003F564436244002848BF02F10C03197028
:1029B00010BD00004EF60C51CEF200010A684FF631
:1029C000FF031A4060F30A2242F0806040F0FD707D
:1029D00008607047002804BF012070472DE9F041CE
:1029E00043F60808C4F202080446D8F8F8030D4676
:1029F00000F00700884207D288F8F853D8F8F803A7
:102A000000F00700A84277D12068810717D5410759
:102A100005D5D8F8001041F4E051C8F800100107BE
:102A200005D5D8F8001041F46041C8F80010D8F876
:102A30000010A26821F0F0011143C8F80010C0078F
:102A400040D1D8F8F80300F00700A84207D988F869
:102A5000F853D8F8F80300F00700A8424CD12068DA
:102A6000410707D5D8F80010E26821F4E05111437E
:102A7000C8F80010000708D5D8F80000216920F434
:102A8000604040EAC100C8F8000000F09DF8D8F8A6
:102A9000001049F29002C1F30311C0F60002515C2C
:102AA00040F24C1220FA01F140F21000C2F2000094
:102AB0000068C2F200021160FFF7BEFE0020BDE810
:102AC000F08100BF6068811E022907D258F8081CF7
:102AD00089015CBF0120BDE8F08111E0012807D128
:102AE00058F8081C89035CBF0120BDE8F08107E0AD
:102AF00058F8081C890703D40120BDE8F08100BF05
:102B0000D8F8001021F003010843C8F80000FFF7CF
:102B100063FE064641F28837D8F80000616800F08D
:102B20000C00B0EB810F8CD0FFF756FE801BB84233
:102B3000F2D90320BDE8F0810F22026043F60802BB
:102B4000C4F20202136803F003034360136803F046
:102B5000F0038360136803F4E053C360D2F800C04D
:102B60004FF4E05303EADC030361D2F8F80300F00A
:102B7000070008607047000040F24C1043F608015F
:102B8000C2F20000C4F202010068096849F2A00222
:102B9000C1F38221C0F60002515CC84070470000BA
:102BA00040F24C1043F60801C2F20000C4F20201E8
:102BB0000068096849F2A002C1F34231C0F6000280
:102BC000515CC8407047000010B543F60404C4F2DD
:102BD0000204606800F00C0008280BD0042819BF1C
:102BE00042F20040C0F2F40041F60030C0F2B700FB
:102BF00010BD00BF206821682368490241F60031FA
:102C0000C0F2B70100F03F02C3F388105CBF42F28C
:102C10000041C0F2F401A1FB00010023FDF7D0FA4E
:102C200021680222C1F3014102EB4101B0FBF1F046
:102C300010BD0000002804BF012070472DE9F041BD
:102C400082B00446007843F60006C007C4F20206CC
:102C50000CD0B06800F00C00042840F0818030688F
:102C6000800303D56068002800F06A81207880071F
:102C70001BD5B06810F00C0F09D0B06800F00C0044
:102C8000082840F087807068400200F18380306837
:102C9000800703D5E068012840F05281306821693F
:102CA00020F0F80040EAC10030602078000713D41B
:102CB000207840072AD4A569002D00F03C81B06837
:102CC00000F00C00082840F0A180012D40F0108198
:102CD000012002B0BDE8F0816069002840F20000E8
:102CE000C4F2472000F07E800121C0F8801EFFF76B
:102CF00073FD0546706F8007DAD4FFF76DFD401B4A
:102D00000228F7D9032002B0BDE8F081306C5FEAF9
:102D1000C0080AD400200190306C40F0805030642C
:102D2000306C00F080500190019847F20007C4F227
:102D300000073868C00547D4386840F480703860B0
:102D4000FFF74AFD054600BF3868C0053CD4FFF7D1
:102D500043FD401B0228F7D9032002B0BDE8F081F3
:102D6000B06800F00C00082803D1706840023FF5FD
:102D700076AF6068B0F5803F07D0B0F5A02F40F087
:102D80009B80306840F480203060306840F48030B0
:102D900030609BE0E06800285CD00020C4F247204F
:102DA00001210160FFF718FD054600BF306880076C
:102DB0003FF574AFFFF710FD401B0228F6D9032042
:102DC00002B0BDE8F08100BFA068012805D0052849
:102DD00054D1306F40F004003067306F40F0010094
:102DE000306755E00021C0F8801EFFF7F5FC05466E
:102DF000706F80077FF55CAFFFF7EEFC401B022889
:102E0000F6D9032002B0BDE8F08100BF0027C4F26C
:102E1000472700203866FFF7DFFC022D05460DD15D
:102E20003068800140F19080FFF7D6FC401B0228FB
:102E30004FF00300F4D902B0BDE8F08130688001A2
:102E400079D5FFF7C9FC401B02284FF00300F5D9E4
:102E5000F1E700BF0020C4F2472000210160FFF726
:102E6000BBFC0546306880077FF51FAFFFF7B4FC59
:102E7000401B02284FF00300F4D9DCE7316F002833
:102E800021F001013167316F21F0040131677DD0FC
:102E9000FFF7A2FC054641F2883700BF306F80077C
:102EA00000F18680FFF798FC401BB842F6D903205A
:102EB00002B0BDE8F08100BF3168002821F4803104
:102EC0003160316821F4802131607BD0FFF784FCD0
:102ED000054600BF306880033FF5C8AEFFF77CFCB5
:102EE000401B6428F6D9032002B0BDE8F08100BF82
:102EF0007068E16900F480028A4221D1216A00F001
:102F00003F028A421CD147F6C071626A0140B1EBB0
:102F1000821F15D1A16A4FF6FF73C903994300F4CC
:102F20004032A1F580318A420AD1E16A00F0706036
:102F3000B0EB016F04D1002002B0BDE8F08100BF0A
:102F4000012002B0BDE8F08104F11C052FCD08433B
:102F500040EA8210D9034FF6FF729143A1F5803108
:102F600040EA05600843706001203866FFF734FCD2
:102F7000044600BF30688001DDD4FFF72DFC001B44
:102F800002284FF00300F5D955E700BFFFF724FCF6
:102F9000054641F2883700BF306F800708D5FFF73C
:102FA0001BFC401BB8424FF00300F5D943E700BFBC
:102FB000B8F1000F3FF57FAE306C20F080503064E8
:102FC00079E600BFFFF708FC054600BF30688003C4
:102FD0007FF54CAEFFF700FC401B64284FF0030068
:102FE000F4D928E770B538B10446406A30B1002002
:102FF000206104F1140007E0012070BD6068B0F5A5
:10300000827F03D004F11C00002101600026A6622B
:1030100094F8510020B9204684F8506000F03CF844
:10302000022084F8510094E80F0001F482710568D1
:1030300002F4044225F040050560114403F40062E7
:103040002369114403F002026369114403F0010291
:10305000A369E569114403F40072114405F03802D4
:10306000256A114405F08002A56A114305F4005257
:1030700011430160626A042101EA134102F0100267
:1030800011444160C16921F40061C161012066659C
:1030900084F85100304670BD016843F60000C4F268
:1030A0000000814218BF704780B586B0002143F60A
:1030B00030020191C4F20202136900F5E63043F4D4
:1030C00080431361136903F480430193019B0191D1
:1030D000136843F002031360126802F002020192C7
:1030E000019A4FF4604201920222CDE902210321AC
:1030F00004910521059101A9FFF790FA06B0BDE8FA
:10310000804070472DE9F04383B01E4615460F46B8
:103110000446FFF761FB94F851108146012909D15B
:10312000002F4FF0010018BF002D0FD103B0BDE8F4
:10313000F08300BF6068B0F5827F0DD104294FF0A5
:103140000200F3D1A1680029EAD0EFE7002EEDD00C
:1031500094F85000012803D1022003B0BDE8F083A9
:10316000012084F8500094F85100002104281CBF6D
:10317000052084F851006165A563E687A68727636B
:10318000E6862068A686216461640168490603D446
:10319000016841F0400101606168731EE268B1FAA4
:1031A00081F1B3FA83F3DDF8288049095B09B2F5B0
:1031B000006F41EA030165D131B137F8021BC160EC
:1031C0002763E08E0138E086012518F1010032D135
:1031D00002E000BFFFF700FBE08E18B9E08F002887
:1031E00000F0B8802068816889070CD5E18E51B164
:1031F000012D08D1216B002531F8022BC26021631B
:10320000E18E0139E1868168C907E3D0E18F0029A9
:10321000E0D0C068A16B012521F8020BA163E08F0B
:103220000138E087D6E700BFFFF7D6FAA0EB090028
:10323000404580F0A580E08E18B9E08F002800F0AE
:1032400089802068816889070CD5E18E51B1012DF4
:1032500008D1216B002531F8022BC2602163E18E79
:103260000139E1868168C907DED0E18F0029DBD012
:10327000C068A16B012521F8020BA163E08F013822
:10328000E087D1E739B139780173206B01302063D1
:10329000E08E0138E086012518F1010032D101E00D
:1032A000FFF79AFAE08E10B9E08F002852D020681C
:1032B000816889070ED5E18E61B1012D0AD1216B9C
:1032C000002509780173216B206801312163E18EAB
:1032D0000139E1868168C907E2D0E18F0029DFD09A
:1032E000C068A16B01250870A06B0130A063E08F5E
:1032F0000138E087D4E700BFFFF76EFAA0EB0900C2
:1033000040453DD2E08E08B9E08F18B3206881684F
:1033100089070ED5E18E61B1012D0AD1216B0025FF
:1033200009780173216B206801312163E18E013935
:10333000E1868168C907DFD0E18F0029DCD0C06851
:10334000A16B01250870A06B0130A063E08F0138EC
:10335000E087D1E72046022101224346CDF80090C4
:1033600002F010FCB0B1606D40F0200060652020DC
:103370006065002084F85000012003B0BDE8F083B0
:10338000012084F85100002084F85000032003B08D
:10339000BDE8F08340F24C10C2F20000006849F62C
:1033A0008171C1F25E61A0FB0101480D4FF47A7199
:1033B000484302906068B0F5827F21D12046802189
:1033C00000224346CDF8009002F0DCFB0028CAD171
:1033D000A06838B9002001902068C1680191806818
:1033E00001900198012084F85100002084F85000D9
:1033F000606D002818BF012003B0BDE8F08300BF56
:1034000002980028E4D00298013802902068806871
:103410000006DDD502980028DAD002980138029023
:10342000206880680006D3D502980028D0D0029882
:1034300001380290206880680006C9D502980028EB
:10344000C6D0029801380290206880680006D7D460
:10345000BEE70000704700007047000090F83C2075
:10346000012A4FF0020254D010B580F83D200268C6
:10347000D2F804E0D2F808C00C682EF070032343A1
:1034800041F2FF74C4F20004A24253600EDC40F229
:10349000FF73C4F200039A4216DCB2F1804F2BD0C6
:1034A00040F20043C4F2000324E000BF40F2FF33C7
:1034B000C4F201039A4213DC41F60003C4F2000394
:1034C0009A4219D0002313E040F60003C4F200032F
:1034D0009A4211D040F60043C4F200030AE000BF54
:1034E00044F20003C4F201039A4205D040F20043C3
:1034F000C4F201039A4204D149682CF080031943B5
:1035000091600121002280F83D1080F83C20BDE848
:103510001040104670470000002804BF012070478B
:1035200010B5044690F83D0028B9002084F83C000E
:10353000204600F01FF8022084F83D002068211D7D
:1035400002F048FC012084F8460084F83E0084F82C
:103550003F0084F8400084F8410084F8420084F879
:10356000430084F8440084F8450084F83D000020BE
:1035700010BD00007047000090F83D1001291CBFED
:1035800001207047022180F83D10006841F2FF726F
:10359000C168C4F20002904241F00101C1600DDC3B
:1035A00040F2FF71C4F20001884215DCB0F1804F97
:1035B0002AD040F20041C4F2000123E040F2FF3182
:1035C000C4F20101884213DC41F60001C4F200019B
:1035D000884219D0002113E040F60001C4F2000136
:1035E000884211D040F60041C4F200010AE000BF59
:1035F00044F20001C4F20101884205D040F20041CA
:10360000C4F20101884206D1816801F00701062950
:1036100004BF00207047016841F0010101600020F3
:10362000704700007047000070B504460068C56828
:103630000669B10716D515F0020113D06FF002012B
:103640000161012121778069800703D02046FFF7BF
:10365000E9FF05E0204600F069F9204600F0AEF9E8
:1036600000202077700719D515F0040016D02068C7
:103670006FF00401016102212177806910F4407F1D
:1036800004D02046FFF7CEFF06E000BF204600F042
:103690004DF9204600F092F900202077300717D529
:1036A00015F0080014D020686FF0080101610421B2
:1036B0002177C069800703D02046FFF7B3FF05E0FC
:1036C000204600F033F9204600F078F900202077FA
:1036D000F00619D515F0100016D020686FF0100113
:1036E000016108212177C06910F4407F04D0204691
:1036F000FFF798FF06E000BF204600F017F92046CC
:1037000000F05CF900202077F00718BF15F00100E9
:1037100002D1300609D412E020686FF00101016186
:10372000204600F04DF9300609D515F0800006D08E
:1037300020686FF0800101612046FFF78BFE700664
:1037400009D515F0400006D020686FF040010161F6
:10375000204600F03FF9B00658BF70BD15F02000BC
:1037600008D021686FF0200220460A61BDE8704051
:10377000FFF772BE70BD000090F83C30012B04BF13
:10378000022070474FEAB202032A00F2C980F0B566
:10379000DFE802F002326698026840F20045136AE0
:1037A000166A23F0020326F001061662D2F804E03E
:1037B000D2F818C08E6842F48064C4F20105AC42AD
:1037C00043EA060305D1CE6823F00C0326F0040675
:1037D00033430E68AC4206D1D1E905472EF440755B
:1037E000254345EA070E2CF073073743C2F804E07F
:1037F0009761496851638AE0026840F20045136AA4
:10380000176A23F0200327F010071762D2F804E0AC
:10381000D2F818C08E6842F48064C4F20105AC424C
:1038200043EA061307D1CE686FF0400723F0C003C8
:1038300007EA061633430E68AC4206D1D1E90545C6
:103840002EF44067254347EA850E2CF4E64747EA05
:103850000627C2F804E097614968916357E000BF0A
:10386000026840F20045136A176A23F4007327F4D4
:1038700080771762D2F804E0D2F81CC08E6842F458
:103880008064C4F20105AC4243EA062307D1CE6846
:1038900040F2FF47360223F44063BE4333430E68D1
:1038A000AC4206D1D1E905452EF44057254347EAFD
:1038B000051E2CF073073743C2F804E0D76149684E
:1038C000D16324E0026840F20047D2F820C0136AB6
:1038D00042F4806623F4805313625368D4690D6800
:1038E000D1F808E0C4F20107BE4204D14E6923F4C6
:1038F000804343EA861324F4E64646EA05265360ED
:10390000D66149682CF4005747EA0E331164002150
:103910001362BDE8F040002280F83C200846704762
:103920000121002280F83C200846704770470000C3
:10393000002804BF0120704710B5044690F83D00F0
:1039400028B9002084F83C00204600F01FF802202F
:1039500084F83D002068211D02F03CFA012084F823
:10396000460084F83E0084F83F0084F8400084F864
:10397000410084F8420084F8430084F8440084F84D
:10398000450084F83D00002010BD00000068B0F143
:10399000804F18BF704781B00020009043F6400070
:1039A000C4F20200016841F001010160006800F00A
:1039B00001000090009801B07047000070470000BF
:1039C000006840F20041C4F20001884218BF70470D
:1039D000FEF708BF7047000040F65452C2F20002E2
:1039E000904218BF70472DE9F04F88B0D06B036844
:1039F0001A681F68120327F001071F601F6840F252
:103A00004022C2F2000231D447F400271F6024276D
:103A100012295F6040F0A48002F12501079102F1B4
:103A20002401069102F12301059102F12201049182
:103A300002F12101029102F11A01039102F119012F
:103A4000019102F1180102F1200B02F11F0A02F1AB
:103A50001E0502F11D0E02F11C0802F11B09009166
:103A600002F1170402F1160C2FE000BF27F4002723
:103A70001F60242712295F6072D102F1370107917C
:103A800002F13601069102F13501059102F134018E
:103A9000049102F13301029102F12C01039102F130
:103AA0002B0102F1320B02F1310A02F1300502F171
:103AB0002F0E02F12E0802F12D09019102F12A01C7
:103AC00002F1290402F1280C009199F800609EF897
:103AD0000070C6F30111917298F80010B309D37207
:103AE00041EA07212B789AF80070918143EA072177
:103AF000029F9BF800303F78D18143EA0721049B65
:103B000011821B7805999374069B079F09781B788F
:103B10003F78D17443EA07219CF8003027789182DE
:103B200067F30A23A3F58061009B1180F9081B78D5
:103B3000019F63F34A113F78A1F580615180B9007C
:103B4000039F41EA93113F78036867F38A21A1F547
:103B500080619180790866F3CA11A1F58061D180F6
:103B6000186840F00100186008B0BDE8F04F7047D9
:103B700070470000B0B582B0044600680168C368B1
:103B8000426901F02F05202D03F0200506D12DB14B
:103B9000204602B0BDE8B04002F0CEB95FEA017C39
:103BA0001EBF02F0010E03F4907212EB0E0243D11D
:103BB000226BCD0618D5012A16D113F0100213D0AE
:103BC00000210191016801914168019101994069C9
:103BD00040063BD4A08DE18DE28D002A18BF8842BB
:103BE00040F0F28102B0B0BD0A0640F1E78013F068
:103BF000800200F0E38094F841102129F2D1A168FD
:103C0000B1F5805F03D12169002900F06382216A48
:103C10004A1C226209784160E18C01390A04E1847E
:103C2000E0D1C16821F08001C160C16841F040016C
:103C3000C16002B0B0BD00BFCA0718BF13F48072E4
:103C400040F0D0804A0700F1D380D8E0E06B0168F3
:103C500049688AB2002AC5D0A38D9A42C2D2E185B2
:103C6000C069B0F5807F00F09D80206850E8030FA8
:103C7000216820F4807041E80302DAB1206850E83E
:103C8000030F216820F4807041E8030292B120689C
:103C900050E8030F216820F4807041E803024AB124
:103CA000206850E8030F216820F4807041E8030287
:103CB000002ADAD1206850E8050F216820F00100C1
:103CC00041E80502BAB3206850E8050F216820F0EA
:103CD000010041E8050272B3206850E8050F216831
:103CE00020F0010041E805022AB3206850E8050FE2
:103CF000216820F0010041E80502002ADAD11AE02B
:103D0000206850E8050F216820F0400041E80502D6
:103D1000DAB1206850E8050F216820F0400041E842
:103D2000050292B1206850E8050F216820F040009C
:103D300041E805024AB1206850E8050F216820F0EB
:103D4000400041E80502002ADAD1202084F8420030
:103D500000202063206850E8030F216820F0100045
:103D600041E80302DAB1206850E8030F216820F02F
:103D7000100041E8030292B1206850E8030F216867
:103D800020F0100041E803024AB1206850E8030F18
:103D9000216820F0100041E80302002ADAD1E06B2C
:103DA000FEF73CFA02206063A08DE18D401A81B2DB
:103DB000204602B0BDE8B040FFF70EBE49067FF5D1
:103DC00011AF13F040013FF40DAFC16821F0400185
:103DD000C1602021204684F8411002B0BDE8B04007
:103DE00000F09EBB626C42F0010262644A0706D595
:103DF000BEF1000F03D0626C42F0020262648A07D7
:103E000006D5BEF1000F03D0626C42F0040262647A
:103E1000BCF1000F06D55EEA050203D0626C42F0E9
:103E200008026264626C002A3FF4DCAE890604D5A5
:103E30001DB1204602F080F820684069616C00F0F6
:103E4000400001F00801401800F0B680206850E8FA
:103E5000030F216820F4907041E80302BAB3206890
:103E600050E8030F216820F4907041E8030272B318
:103E7000206850E8030F216820F4907041E80302A5
:103E80002AB3206850E8030F216820F4907041E8BD
:103E90000302002ADAD11AE0206850E8050F2168F1
:103EA00020F0010041E80502DAB1206850E8050F72
:103EB000216820F0010041E8050292B1206850E835
:103EC000050F216820F0010041E805024AB1206891
:103ED00050E8050F216820F0010041E80502002AA2
:103EE000DAD1206B012824D1206850E8030F216823
:103EF00020F0100041E80302DAB1206850E8030F17
:103F0000216820F0100041E8030292B1206850E8D7
:103F1000030F216820F0100041E803024AB1206835
:103F200050E8030F216820F0100041E80302002A46
:103F3000DAD1202084F84200002020632068406904
:103F4000400640F1C180206850E8050F216820F04C
:103F5000400041E80502DAB1206850E8050F216809
:103F600020F0400041E8050292B1206850E8050FBA
:103F7000216820F0400041E805024AB1206850E87D
:103F8000050F216820F0400041E80502002ADAD13F
:103F9000E06B002800F0988045F62D71C0F6000116
:103FA0000165FEF783F900283FF41CAEE06B016D5C
:103FB00002B0BDE8B04008472046FFF7D9FD002019
:103FC000606402B0B0BD00BF401A00BF216851E874
:103FD000031F226821F4907142E80313BBB32168E8
:103FE00051E8031F226821F4907142E8031373B370
:103FF000216851E8031F226821F4907142E80313FD
:104000002BB3216851E8031F226821F4907142E824
:104010000313002BDAD11AE0216851E8051F22684A
:1040200021F0010142E80513DBB1216851E8051FC9
:10403000226821F0010142E8051393B1216851E89B
:10404000051F226821F0010142E805134BB12168E8
:1040500051E8051F226821F0010142E80513002BF9
:10406000DAD1202184F8421000212163216851E82F
:10407000031F226821F0100142E80313DBB121681D
:1040800051E8031F226821F0100142E8031393B1A5
:10409000216851E8031F226821F0100142E8031350
:1040A0004BB1216851E8031F226821F0100142E85A
:1040B0000313002BDAD1022281B22046626302B0E0
:1040C000BDE8B040FFF788BC204602B0BDE8B04074
:1040D000FFF74EBD216A31F8022B6FF35F22426079
:1040E000216299E5002804BF0120704710B50446FD
:1040F00090F8410028B9002084F84000204600F0E4
:1041000021F8242084F841002068C16821F400517E
:10411000C160204601F090FF2068016921F49041C0
:104120000161416921F02A014161C16841F40051F6
:10413000C16000202021606484F8411084F842109E
:10414000606310BD2DE9F04786B00446006844F670
:10415000FF71C4F2000188424FF000010591CDE9E2
:104160000311CDE901116DDD45F20001C4F200013A
:10417000884200F0E98041F20001C4F20101884266
:1041800000F0268141F20041C4F20101884240F072
:10419000C281002643F630000096C4F20200416955
:1041A00041F020014161416901F020010091009935
:1041B0000096016841F004010160006801A900F067
:1041C000040000900098C02001900220CDE9020672
:1041D000032004900820059040F60000C4F202007D
:1041E000FEF71CFA46F24000C4F2020040F6EC254D
:1041F00000F57A70C2F200054FF0206185E84300B7
:104200004FF440304FF480624FF48073C5E90806E4
:104210002846C5E90362C5E90566EB61FEF738F992
:10422000002818BFFDF74CFB472005210022E5635D
:10423000AC63FEF793FB4720FEF77EFB06B0BDE8BC
:10424000F08700BF44F20041C4F20001884200F050
:10425000378144F60041C4F20001884240F05B819E
:10426000002643F630000096C4F20200016946F2CF
:10427000400841F4002101610169C4F2020801F41F
:104280000021009100990096016841F0040101604D
:10429000006801A900F00400009000984FF440600D
:1042A00001900220CDE90206032004900820059029
:1042B00040F60000C4F20200FEF7B0F940F66C15BB
:1042C000C2F200054FF0006A4FF480694FF44037A6
:1042D0002846C5E9008AC5E90266C5E90496C5E92C
:1042E0000666C5E90876FEF7D3F8002818BFFDF783
:1042F000E7FAE563AC6340F6CC1508F13000C2F292
:1043000000054021C5E9000A05F108004FF480725C
:1043100080E842022846C5E90566EA61C5E90876F3
:10432000FEF7B6F8002818BFFDF7CAFA34200521B9
:104330000022A563AC63FEF711FB3420FEF7FCFA04
:1043400006B0BDE8F08700BF002643F630000096B7
:10435000C4F20200016940F6000441F480110161D9
:104360000169C4F2020401F48011009100990096E1
:10437000016801AD41F00401016001684FF00208DD
:1043800001F0040100910099009601684FF00309C3
:1043900041F0080101600068082700F00800009063
:1043A00000984FF48050019020462946CDE90286BE
:1043B000CDF810900597FEF731F90420CDE90108FA
:1043C000CDE90369059704F580602946A1E000BFA7
:1043D000002643F630000096C4F20200416946F21E
:1043E000400841F0100141614169C4F2020801F046
:1043F0001001009100990096016841F001010160EF
:10440000006801A900F00100009000984FF4C0601E
:1044100001900220CDE902060320049007200590B8
:1044200040F60000C4F20200A0F50060FEF7F6F8C6
:1044300040F62C2508F58060C2F200054FF0006AB6
:104440004FF48069C5E9000A4FF440372846C5E9B2
:104450000266C5E90496C5E90666C5E90876FEF771
:1044600017F8002818BFFDF72BFAE563AC6340F698
:104470008C2508F58F60C2F200054021C5E9000ACD
:1044800005F108004FF4807280E842022846C5E931
:104490000566EA61C5E90876FDF7FAFF002818BF4E
:1044A000FDF70EFA252005210022A563AC63FEF777
:1044B00055FA2520FEF740FA06B0BDE8F08700BFA8
:1044C000002043F630010090C4F202010A6942F470
:1044D00000320A610A6902F400320092009A0090E8
:1044E0000A6842F008020A60096801F008010091B8
:1044F0000099602101910221CDE90210032004906E
:104500000720059040F60000C4F2020000F580602C
:1045100001A9FEF783F806B0BDE8F08770470000F8
:1045200070470000FEE7000000F004F8012003F0EF
:1045300085FBF9E740F69C54C2F20004B7EE008A0E
:10454000DFEDBB0A9FEDBB1A2046B0EE480A03F030
:10455000D1F940F21408C2F20008D8F8000040F681
:10456000400740F2902540F20C369FEDB3AA9FED34
:10457000B3BA9FEDB3CA9FEDB3DA9FEDB4EA9FEDF6
:10458000B2FAC2F20007C2F20005C2F20006B6EEAD
:10459000009A4FF000094FF0010AFFEE008A3864DC
:1045A00007E000BF30EE080A85ED020A012003F0A3
:1045B00045FB2846FDF720F8304685ED010A84EDDD
:1045C000020AFCF7ADF906F10C0090EC030AD6ECF8
:1045D000031A07F1100080EC060A05F10C00C0EC8C
:1045E000031A05F1180080EC030A204603F09CF939
:1045F000204603F0BBF9204603F09AF9204601F06B
:1046000067FA94ED0E2A94ED0C0A94ED0D1A94EDD0
:104610000F3A22EE427A37EE094A63EE430A60EE21
:10462000031A61EE022AD8ED023AD8ED014A30EEC3
:10463000845A32EEA14A24EE236A65EE245AD8ED5C
:10464000036A61EE037A60EE029A72EEE11A61EE9D
:10465000012A75EE865A37EEE96A79EE622A66EE2D
:1046600026AA70EEA20A7AEEA55A60EEA3AA61EE1F
:10467000A4BA7BEEAAAA60EE01BA62EE03CA77EE94
:10468000A97A7CEEEB9A69EEA33A67EEA44A37EE7C
:10469000227A74EEA33A67EE262A7CEEABDA72EE4B
:1046A000A32AD7ED073A6DEEA6EA75EEA54A7EEE8F
:1046B000AAAA73EEE43AD7ED084A7AEEAA5A74EE43
:1046C000E54AD7ED095A72EEA22AD5ED016A75EED8
:1046D000E22AD7ED105AD7ED0AAAD7ED0BBAD7EDDB
:1046E0000CCA63EEA63A64EEA64A62EEA62A76EEFD
:1046F000A56A65EEAAAA65EEABBA65EEAC5AC3EE42
:10470000A63ACAEEA6AAC4EEA64ACBEEA6BAC2EE56
:10471000A62AC5EEA65A87ED000A87ED011A87ED95
:10472000022A87ED033A33EEAA0A25EE005A34EE48
:10473000AB1A21EE813A32EEA52A35EE033A27EE86
:10474000825A35EE033A20EE815A24EE004A87ED74
:104750000B1A2DEE811A87ED0A0A26EE000A30EEBA
:10476000010A27EE021A34EE054A29EE825A31EE8A
:10477000000A33EE031A35EE044A87ED0D1AB0EE47
:10478000C11AB4EE4A1A34EE041A87ED0E1A30EE4E
:10479000000AB0EEC11AF1EE10FA87ED0F0AB4EE7E
:1047A0004A1AB0EEC00A87ED0C2AB8BFC7F8349099
:1047B000F1EE10FAB4EE4B0AB8BFC7F83890F1EE3C
:1047C00010FAB8BFC7F83C9095ED020AB4EE4C0A57
:1047D000F1EE10FA7FF7E6AE94ED1B0A97ED201A82
:1047E000D4E9191030EE412AB4EE4D2AF1EE10FA58
:1047F00087F890A0C7E91C1087ED1E0A04DD97ED2D
:10480000211A31EE281A08E097ED211AB4EE4F2A4A
:10481000F1EE10FA03DA31EE081A87ED211A21EED3
:104820000E1A31EE001A87ED1F1A87ED200ABDE639
:10483000000000006F12833A0AD7A33C0AD7233D39
:1048400000803B45DA0F4940DA0F49C0560EC94097
:104850002DE9F04F81B0044640F28C2A0420C2F2C8
:10486000000AC0F20800CAF8000000200E462173BA
:10487000207401201946984691466273A373FBF792
:10488000F4FC4FEA8805606101202946FBF7EDFC46
:10489000A06101202946FBF7E8FCB700E061012098
:1048A0003946FBF7E2FC206201204146FBF7DDFCC4
:1048B000606201203946FBF7D8FC206001202946C0
:1048C000FBF7D3FC60604FEA89010120FBF7CDFCC8
:1048D000A06001203946FBF7C8FC0346C4F8F0008D
:1048E00004F130003146012202F057F8BAF8000016
:1048F00000FB06F10120FBF7B8FC217B0346C4F85E
:10490000F40004F13800012202F047F8B9F1000F79
:104910000FD0BAF8000000FB09F10120FBF7A5FC5D
:10492000617B0346C4F8F80004F14000012202F064
:1049300034F8BAF8000000FB08F10120FBF795FC01
:10494000A17B0346C4F8FC0004F14800012202F0F8
:1049500024F8BAF8000006FB06FB0BFB00F101206F
:10496000FBF783FC217B0346C4F8000104F15000EF
:104970000A4602F012F8BAF800000BFB00F1012021
:10498000FBF773FC217B0346C4F8040104F15800D3
:104990000A4602F002F8BAF800000BFB00F501200D
:1049A0002946FBF762FC0746C4F8080101202946A6
:1049B000FBF75BFC217BC4F80C0104F160000A46A4
:1049C0003B4601F0EAFF217BD4F80C3104F168008A
:1049D0000A4601F0E2FFB9F1000F10D0BAF800006A
:1049E00009FB06F141430120FBF73FFC217B627B81
:1049F0000346C4F8140104F1780001F0CEFFBAF8C0
:104A0000000008FB06F707FB00F501202946FBF72D
:104A10002CFC0646C4F8180101202946FBF725FCAA
:104A2000227BA17BC4F81C0104F18000334601F015
:104A3000B4FF217BA27BD4F81C3104F1880001F083
:104A4000ACFFBAF800000BFB00F10120FBF70DFCF6
:104A5000217B0346C4F8200104F190000A4601F0CE
:104A60009CFFBAF8000008FB08F141430120FBF766
:104A7000FCFBA17B0346C4F8240104F198000A461C
:104A800001F08BFFBAF8000007FB00F10120FBF7F3
:104A9000ECFB217BA27B0346C4F8280104F1A000B3
:104AA00001F07BFFBAF80000257B05FB00F707FB50
:104AB00005F6304604F07AFA8046C4F82C013046F8
:104AC00004F074FAC4F83001304604F06FFAC4F808
:104AD0003401384604F06AFAC4F83801384604F064
:104AE00065FAC4F83C0104F1A80029462A46434669
:104AF00001F053FF217BD4F8303104F1B0000A46B5
:104B000001F04BFF217BD4F8343104F1B8000A46A0
:104B100001F043FF217BD4F8383104F1C0000122B9
:104B200001F03BFF217BD4F83C3104F1C8000122A5
:104B300001F033FF002084F82C00A06201B0BDE832
:104B4000F08F00002DE9F04F83B00446C07B40F2A7
:104B50008C280028C2F2000868D00020B8F8002095
:104B6000A37B2074D4F8FC0061685A43FBF759FB1F
:104B7000B8F80010A27B60685143FBF76BFBB8F8F4
:104B80000010A27BD4F8240151435143FBF762FB90
:104B9000B8F80010227BA37BD4F818015143594385
:104BA000FBF758FB94F80EC0BCF1000F2CD000208E
:104BB000002104E00131614500F1040024D2D4F861
:104BC000FC301F1897ED000AB5EE400AF1EE10FA1E
:104BD000F0D0227C676A03EB820383ED000AB954AC
:104BE000D4E90532257B1758227C5B5CD4F8186128
:104BF00094F80EC012FB053306EB8303013243F831
:104C0000047C2274D6E700BF94F810A0BAF1000F1C
:104C10007BD0E169666AD4F824C1BAF1040F0AF0C6
:104C2000030515D20020002D54D16EE0B8F8002005
:104C3000A37BD4F8FC0061685A43FBF7F2FAB8F89A
:104C40000010A27B60685143FBF704FB70E000BFDB
:104C50000AF0FC00C0F1000B0AEB4A000C2202EB48
:104C60008009102000EB0A170820009500EBCA0508
:104C70000420721C00EB8A036FF003000196CDF84C
:104C800008C000BF02EB000E9EF80380043051F80C
:104C90002860CCF800609EF8046051F826604CF85B
:104CA00003609EF8056051F826604CF805609EF898
:104CB000066051F826604CF809600BEB00060436DC
:104CC000BC44DFD140F28C289DE860100430C2F271
:104CD0000008D5B1335C0AF1010251F8233000FB22
:104CE00002F7012D4CF827300FD0431CF75C5343DB
:104CF00051F82770022D4CF8237006D00230335C37
:104D0000504351F823104CF82010207BA4F880A0C9
:104D1000A4F88200A4F88800A4F88AA0A4F898A0B7
:104D2000A4F89AA0A4F8A000A4F8A2A0A4F848A00F
:104D3000B8F80020637BD4F8F800A1685A43FBF769
:104D400070FA03B0BDE8F08F2DE9F04381B004465E
:104D500090F82A0010B101B0BDE8F08304F180059D
:104D600004F188092846494602F082F884F8D00008
:104D7000B4F88000264626F8B00FB4F85A0004F1C3
:104D80005808A4F8B20028464146324601F072FFA6
:104D900084F8D00030882746B4F88A1027F8B80F76
:104DA000A4F8BA10304649463A4601F063FF21465E
:104DB00084F8D00051F8980F254645F8A80F3846DA
:104DC0002A4601F08BFD84F8D0002846394601F0D0
:104DD000E9FD84F8D000B4F85800B4F88A103080A7
:104DE000A4F8B21040464946324601F043FF84F829
:104DF000D000A5F108023046394601F03BFF84F8A7
:104E0000D00001B0BDE8F0832DE9F04F81B08346BA
:104E1000FFF798FEDBF8D41009B1584688479BF895
:104E2000280048BB9BF80D000BF13001002800F072
:104E3000A9819BF80C005D4625F8C00F01240BF1F9
:104E400060002A46ABF8C24001F014FF9BF80C103A
:104E50005E4626F8C81F3072A6F15000A6F1880100
:104E60003246748001F006FF3072A6F190022846A7
:104E7000314601F033FD3072DBF8D81009B15846E5
:104E800088479BF8290050BB0BF160050BF16806C1
:104E90002846314601F0ECFF0BF158078BF8D000A3
:104EA0000BF1500128463A4601F0E4FEBBF85810D9
:104EB0005D4625F8B01F35F8461C8BF8D000698098
:104EC000384631462A4601F0D5FE8BF8D000A5F1D0
:104ED000200128463A4601F001FD8BF8D000DBF8AE
:104EE000DC1009B1584688479BF8100040F28C2925
:104EF0000028C2F2000900F087805846FFF724FF1F
:104F0000DBF8E01009B1584688479BF82B0098BBA6
:104F1000584630F8801F5D4625F8C01F0BF1380851
:104F2000012441462A46ABF8C24001F0A3FE8BF8AB
:104F3000D000584630F8481F5F4627F8C81F29465A
:104F40003A46ABF8CA4001F033FF5E4636F8A01F80
:104F50008BF8D0002980304639462A46ABF8C2404B
:104F600001F088FE8BF8D000A6F170024046294679
:104F700001F0B4FC8BF8D000DBF8E41009B158461E
:104F800088479BF82C0030BB584630F8A02F5D4670
:104F900025F8B02F2E4626F8082F35F8562C35F870
:104FA0002E3CA5F130016A812A466B80A5F1580795
:104FB00001F060FE85F8200028463946324601F0AF
:104FC00059FE85F82000A5F160023846314601F00F
:104FD000EFFE85F82000DBF8E81009B15846884755
:104FE0009BF80CA0BAF1000F00F0B880DBF820208D
:104FF000DBF80041BAF1040F0AF00300009021D25F
:10500000A0469646002769E09BF80F0000283FF471
:1050100074AFB9F800209BF80C30DBE93C015A432F
:10502000FBF7FFF8B9F800209BF80C30DBE94001F2
:105030005A435A43FBF7F5F8DBF8E8100029CDD1C5
:10504000CEE700BF0AEB4A000C2101EB8005964633
:1050500002F108010822102002EBCA0304220AF020
:10506000FC0C00EB0A1002EB8A020027A04600BFEE
:1050700094ED001A11ED020A04EB0209B4EE401A95
:10508000F1EE10FAB8BF84ED000A99ED001A11EDA7
:10509000010AE618B4EE401AF1EE10FAB8BF89ED35
:1050A000000A96ED001A91ED000A0437B4EE401A9A
:1050B000F1EE10FAB8BF86ED000A661996ED001AF7
:1050C00091ED010A0444B4EE401AF1EE10FAB8BFB3
:1050D00086ED000ABC4501F11001C9D1009B40F2E8
:1050E0008C29C2F20009CBB30AF1010000FB07F1E1
:1050F00008EB81010EEB870291ED001A92ED000A98
:10510000B4EE401AF1EE10FAB8BF81ED000A012B9F
:1051100024D07A1C00FB02F108EB81010EEB820225
:1051200091ED001A92ED000AB4EE401AF1EE10FA79
:10513000B8BF81ED000A022B10D0B91C484308EB20
:1051400080000EEB810190ED001A91ED000AB4EEA3
:10515000401AF1EE10FAB8BF80ED000AB9F800204D
:10516000DBF80000DBF8F01002FB0AF2FBF759F85D
:10517000DBF8EC1009B158468847DBF8000001B0B5
:10518000BDE8F08F0BF160000BF1380201F072FD09
:105190008BF8D000DBF8D81000297FF470AE70E6F1
:1051A000012002F04BFDFBE7012002F047FDFBE789
:1051B00090ED001AB4EE401AF1EE10FA02DD80ED27
:1051C000000A7047B1EE400AB4EE401AF1EE10FA50
:1051D000B8BF80ED000A704780B540F6D40046F2B3
:1051E0000041C2F20000C4F200010322002380E863
:1051F0000E0000F10C014FF4102C4FF4001E81E85A
:10520000085083618383FCF703FE002808BF80BD3C
:10521000BDE88040FCF754BB80B540F6201046F650
:105220000001C2F20000C4F200010322002380E862
:105230000E0000F10C014FF4102C4FF4001E81E819
:10524000085083618383FCF7E3FD002808BF80BD1D
:10525000BDE88040FCF734BB80B582B0002043F647
:1052600030010190C4F202010A6842F480020A602F
:105270000A6802F480020192019A009008680022F4
:1052800040F4001008600868052100F40010009048
:1052900000980D20FDF762FB0D20FDF74DFB0F2060
:1052A00005210022FDF75AFB0F20FDF745FB3920B1
:1052B00005210022FDF752FB3920FDF73DFB3A2086
:1052C00005210022FDF74AFB3A20FDF735FB462079
:1052D00005210022FDF742FB462002B0BDE88040D8
:1052E000FDF72ABBF0B5B1B049F27400C0F600007A
:1052F00090E81E5080692AAD85E81E5030902AA89B
:10530000002102F0A9FC40F25817C2F200073860F1
:1053100049F25800C0F6000090E87E0080690DF167
:105320008C0C8CE87E00299023A8002102F094FCCC
:105330002E4978602DA0061D1C914ECED0E9055057
:105340000DF1740C8CE84E00CDE921501CA8002111
:1053500002F082FC2C49B8602BA0061D15914ECEA0
:10536000D0E905500DF1580C8CE84E00CDE91A50EB
:1053700015A8002102F070FC2A49F86029A0061D3A
:105380000E914ECED0E905500DF13C0C8CE84E004C
:10539000CDE913500EA8002102F05EFC28493861C7
:1053A00027A0061D07914ECED0E905500DF1200C27
:1053B0008CE84E00CDE90C5007A8002102F04CFC0F
:1053C0002649786125A0061D00914ECED0E90550F2
:1053D0000DF1040C8CE84E00CDE905506846002123
:1053E00002F03AFCB86131B0F0BD00BFEE980008A1
:1053F000A9510008010000000000000000020000A8
:105400000000000000000000E5980008A15100081D
:105410000100000000000000000200000000000089
:1054200000000000D6980008C50800080100000030
:10543000000000000002000000000000000000006A
:10544000B4980008BD5700080200000000000000EA
:10545000000200000000000000000000C1980008E9
:10546000711500080100000000000000800000002D
:1054700000000000000000002DE9F04387B0002785
:1054800043F6300006970197C4F20200016840F627
:10549000004441F0100101600168C4F2020401F00F
:1054A0001001019101990197016804F5806541F0AF
:1054B000800101600168012201F0800101910199E0
:1054C000019701681C2641F00401016001684FF05A
:1054D000010801F00401019101990197016841F06F
:1054E00002010160016801F0020101910199019737
:1054F000016841F008010160016801F008010191B3
:1055000001990197016841F00101016000681C21C7
:1055100000F00100019001982846FDF757F9204658
:105520004FF4206100224FF42069FDF74FF9CDE9D7
:10553000026802AE28463146CDE90477FDF76EF8E1
:10554000A4F580603146CDE902870497FDF766F83F
:1055500020463146CDE90298CDE90477FDF75EF8A3
:1055600007B0BDE8F0830000B0B540F64C3043F61C
:105570000001C2F20000C4F200014FF48272002365
:1055800080E80E0000F10C014FF0020C4FF0010E0C
:105590004FF40074382581E808500A21C0E9064517
:1055A000C0E90833C0E90A31FDF71CFD002808BF37
:1055B000B0BDBDE8B040FCF783B9000010B590B0B5
:1055C00040F6A4300021C2F200004FF0804241F2C8
:1055D0008733CDE90811CDE90611CDE90411C0E901
:1055E0000021C0E9021301618161FEF7A1F90028E1
:1055F00018BFFCF765F940F6A430C2F2000008A914
:10560000FDF72CFF002818BFFCF75AF940F6A43428
:105610000020C2F20004CDE901000390059001A929
:1056200020460422FEF7A8F8002818BFFCF748F926
:105630002068B0F1804F01D010B010BD002043F6BB
:1056400030010B90C4F202010A6842F002020A60C3
:10565000096801F002010B910B9908210B910221BD
:10566000CDE90C100E9001200F9040F20040C4F2E2
:1056700002000BA9FCF7D2FF10B010BD80B540F6B8
:10568000C44044F60041C2F20000C4F2000100230D
:105690004FF00C0C4FF4E13280E80E00C0E9033308
:1056A000C0E905C3C361FEF71DFD002808BF80BD2A
:1056B000BDE88040FCF704B980B540F60C5045F2D7
:1056C0000001C2F20000C4F2000100234FF00C0CF4
:1056D0004FF4E13280E80E00C0E90333C0E905C3AE
:1056E000C361FEF7FFFC002808BF80BDBDE8804015
:1056F000FCF7E6B880B540F6344041F20001C2F252
:105700000000C4F2010100234FF00C0C4FF4E13211
:1057100080E80E00C0E90333C0E905C3C361FEF7AA
:10572000E1FC002808BF80BDBDE88040FCF7C8B898
:1057300080B540F67C4044F20041C2F20000C4F261
:10574000000100234FF00C0C4FF4E13280E80E0012
:10575000C0E90333C0E905C3C361FEF7C3FC0028F9
:1057600008BF80BDBDE88040FCF7AAB8B0B540F6E0
:10577000545041F20041C2F20000C4F2010148F26B
:10578000A0620C240025C0F201024FF480534FF4B4
:10579000005C4FF4806E80E80E50C0E90545C5619D
:1057A000FEF7A0FC002808BFB0BDBDE8B040FCF784
:1057B00087B80000FEE70000FEE7000000F004F8F4
:1057C000012002F03BFAF9E740F64009C2F2000975
:1057D00099F8900038B900BF012002F02FFA99F82B
:1057E00090000028F8D044F6B02AC2F2000A5046D1
:1057F0000221002202230024FFF72AF840F29C082D
:10580000C2F2000808F10407DAF808018ECF44F666
:105810009C468EC008F11407DAF800018ECF9FED88
:10582000528A8EC008F12407DAF820018ECF40F2A8
:10583000B4258EC008F13407DAF824018ECF9FED2D
:105840004BAA8EC0DAF818014FF07E5140F2503763
:10585000C0E90014C0E90241C2F2000744F6F03486
:10586000C2F20006C2F20005C2F20004B6EE009ACF
:1058700007F2C44B97ED030A99ED041A96ED0B2A33
:1058800030EE011A96ED0E3A96ED210A96ED224A77
:1058900033EE41BA22EE04CA00F0D0FF2CEE001A1B
:1058A00096ED210A2BEE082A96ED25BA32EE01CAB2
:1058B00001F038FB2BEE000A97ED241A99ED042A2B
:1058C00030EE0C0A85ED000A31EE021A94ED0B2A37
:1058D00094ED0E3A94ED210A94ED224A31EE43BA4A
:1058E00022EE04CA00F0AAFF2CEE001A94ED210A61
:1058F0002BEE082A94ED25BA32EE41CA01F012FBD4
:105900002BEE000A95ED001A3CEE400A31EE000A3B
:10591000DAF80400D9F8381020EE090A80ED000A00
:1059200041605046FFF770FAD8F80000DAF800102E
:1059300000EE100AB8EE400A80EE0A0A91ED001A55
:1059400085ED011A49688BED001AA96007F5996188
:1059500091ED002A21EE000A30EE020A81ED000AE4
:1059600002F06CF986E700BFEC51B83D00007A44C4
:1059700010B5044694ED002A94ED013AC0ED0B0AEF
:10598000806930EEC01A94ED0F4A84ED0C0A84ED64
:10599000061A94ED090A21EE022A23EE011AE061AB
:1059A00004F13C0031EE041A84ED0E2A84ED0F1A46
:1059B000FFF7FEFB94ED062A94ED073A94ED021AE8
:1059C00032EE432A21EE021A94ED0E2A94ED0F3A9C
:1059D00094ED0A0A32EE032A84ED101A31EE021A0F
:1059E00004F1340084ED0D1AFFF7E2FB94ED0D0A8B
:1059F00010BD00000A6802604A684260896880ED54
:105A0000090A81600021C0ED0A0AC0E90311C0E95A
:105A10000511C0E90711C0E90D11C0E90F11704768
:105A2000EFF30980BFF36F8F154B1A681EF0100F4C
:105A300008BF20ED108A20E9F04F10602DE9090021
:105A40004FF0500080F31188BFF34F8FBFF36F8F7B
:105A500002F0E2FD4FF0000080F31188BDE809007C
:105A600019680868B0E8F04F1EF0100F08BFB0ECDE
:105A7000108A80F30988BFF36F8F704700BF00BFA3
:105A80007401002080B582B040F65450C2F200008C
:105A900001210163022141634FF0240C0168A0F849
:105AA0002CC0C06B4A6940F2402342F040024A6178
:105AB000CA68C2F2000342F01002CA60043103F166
:105AC00016022833CDF800C0FCF76EFB02B080BD93
:105AD00090ED0C0A90ED0D1A90ED0E2A90ED0F3A14
